:020000040800F2
:10000000800C0020D5000008C51B00088D1A0008D0
:1000100000000000000000000000000000000000E0
:10002000000000000000000000000000971F000812
:100030000000000000000000951F0008991F000844
:10004000E7000008E7000008E7000008E7000008F4
:10005000E7000008E7000008E7000008E7000008E4
:10006000E7000008E7000008E70000084D0100086D
:10007000E7000008E7000008E70000087520000816
:10008000E7000008E7000008E7000008E7000008B4
:10009000E7000008E7000008E7000008E7000008A4
:1000A000E7000008E7000008E7000008E700000894
:1000B000E7000008E7000008E70000084D300008EE
:1000C0000348854600F02AF80048004799300008A8
:1000D000800C00200448804704480047FEE7FEE704
:1000E000FEE7FEE7FEE7FEE719200008C100000872
:1000F00030B50B46014600202022012409E00D46C0
:10010000D5409D4205D31D469540491B2546954047
:1001100040191546521E002DF1DC30BD064C01255C
:10012000064E05E0E36807CC2B430C3C984710349F
:10013000B442F7D3FFF7C8FF243100084431000868
:1001400000207047002070470020704710B502481B
:1001500000F016F810BD00001804002010B5044689
:100160000068054940181421FFF7C2FF8000206491
:100170000248E06310BD0000F8FFFDBF0000024030
:10018000F0B4C16B0D6801680C680422066C13465C
:10019000B3402B420DD063070BD50B689B0602D4EE
:1001A0000B6893430B60016C8A40C16B4A60C16A63
:1001B00019E00227B74002462F4001232032002FCA
:1001C00015D0A70713D50C68A40604D40C680A251B
:1001D000AC430C605370036C02219940C36B5960AF
:1001E00000211170816A002916D0F0BC0847082749
:1001F000B7402F4210D024070ED50C680E25AC4313
:100200000C60046C1946A140C46B61608363537039
:1002100000211170016BE6E7F0BC704770B5040077
:1002200024D00220214620310D46487022681168F2
:100230000F48A3680140606826691843E3683343A8
:10024000184363691843A3691843E36918430843D3
:1002500010602046FFF782FF0020A062E06220636A
:100260006063A06301216970287070BD012070BDBA
:100270000FC0FFFF31B500F0BDF8009C0546601CC3
:1002800000D0641C00F0B6F8401BA042FAD338BD81
:10029000F8B5002393E0224601249C40A446224066
:1002A0007ED04C68022C01D0122C0CD1DC08A400AA
:1002B00027183C6A5D07ED0E0F26AE40B4430E6969
:1002C000AE4026433E6205685E000324B4400F79C9
:1002D000A543BF07BF0FB7402F4307604D68012DEF
:1002E00005D0022D03D0112D01D0122D0ED185681D
:1002F000CF68A543B7402F43876047686546AF4343
:100300000D79ED06ED0F9D403D434560C568A54361
:100310008C68B4402C43C4604C68E4004ED52B4C30
:10032000A56901263543A561A4699D083440009460
:10033000274CAD002F19BC689D072E0F0F25B54027
:10034000AC430925ED06A84201D1002514E0214D5A
:10035000A84201D101250FE01F4DA84201D102257D
:100360000AE01E4DA84201D1032505E01C4DA8421C
:1003700001D1042500E00525B5402543BD60194C99
:1003800025684E689543F60300D5154325606568DA
:100390004E689543B60300D515436560A56800E037
:1003A0000CE04E689543F60200D51543A560E5685C
:1003B0004E689543B60200D51543E5605B1C0A689C
:1003C0001446DA4000D066E7F8BD00000010024095
:1003D000000001400004004800080048000C0048EC
:1003E0000010004800040140002A01D081617047DC
:1003F0008162704701480068704700006800002073
:1004000002480168491C0160704700006800002034
:1004100010B506480168102211430160002000F069
:1004200007F800F017F8002010BD0000002002407F
:1004300010B5044600F0A4FE7D21C900FFF758FE68
:1004400001F0F2F800222146501E00F029F80020A9
:1004500010BD000008B50C4881690122114381617B
:1004600080691040002200901146501F00F018F8DB
:1004700000221146901E00F013F800221146501E73
:1004800000F00EF808BD000000100240C106C90EC1
:1004900001208840014908607047000000E100E049
:1004A00010B501F091FB10BD10B50C0606D549063C
:1004B000490E1C2461430818283004E01C246143C1
:1004C0000818FF30093099B2002A06D00122827242
:1004D000C180190C0181002010BD00228272818030
:1004E000F9E71C224A43121810B5FF30FF300230E2
:1004F000926BC06902F05AFA10BD1C224A431218CE
:1005000010B5FF30FF32FF30013202309269C0690E
:1005100002F0A7FA10BD0000F0B54A06520E1346CD
:100520001C256A43CC091218002C01D0283201E0A6
:10053000FF32093204461370C909FF345170E134A7
:10054000217A01293DD001212172957A494B002D54
:100550004949557837D0002D05681678AC465BD0F0
:10056000B600AD5B6F0404D5444F0D403D43674674
:10057000BD5305681678AC46B600AD5B6F0605D571
:100580003C4F0D4040373D436746BD5315780668E4
:10059000AF00F55B0D4039490D43F553364F1178E7
:1005A00030373D40066889001D4375521178334A43
:1005B00000688900F13A15401D4345520020207221
:1005C000F0BD0220F0BD002D05681678AC4610D0B5
:1005D000B600AD5B6F0605D50D40264940310D4391
:1005E00061468D5305681078234A8100685A30327D
:1005F0000EE0B600AD5B6F0404D50D401F490D43FE
:1006000061468D53056810781C4A8100685AF13A9A
:10061000104018436852D1E7B600AD5B6F0404D5B3
:10062000164F0D403D436746BD5305681678AC46EE
:10063000B600AD5B6F0605D50E4F0D4040373D430C
:100640006746BD5315780768AE00BD5B0D4009498C
:1006500040310D43BD53094F1678F13F3D400168CD
:10066000B6001D438D531178034A8900006830326B
:10067000A1E70000808000008F8F000080C0000094
:10068000F0B54B06CA095B0E002A04D01C225A435F
:100690001218283204E01C224A431218FF32093291
:1006A0000024947013700346C909FF335170E1337D
:1006B000197A01291AD00121197251781A4C00298E
:1006C0001178066814D08D00715B4F0603D5214068
:1006D000164C21437153117800688A00124C815ADC
:1006E0003034214010246140202414E00220F0BD69
:1006F0008D00715B4F0403D521400D4C2143715394
:10070000117800688A000A4C815AF13C214001248A
:100710002403614064006140044C403C2143815209
:1007200000201872F0BD00008F8F0000C080000014
:1007300080C00000F0B54D066D0E2E461C246543AA
:10074000CF092C18002F01D0283401E0FF340934E0
:100750002670C90961700146FF31E260E131E37042
:100760008C46097A01290DD0012261460A72E2788D
:100770009349002A08D0012A20D0022A0DD0032A4A
:1007800025D111E00220F0BD237802689B00D55AE4
:100790000D40FF35FF35023504E0237802689B00E9
:1007A000D55A0D40D55212E02278036892009D5A26
:1007B0000D40032149026918995208E02378026824
:1007C0009B00D55A0D40012189026918D152267823
:1007D0000768B5007B5B7B497B4A0B40134333437F
:1007E0007B53A57A002D53D02578784E0B400768AF
:1007F000AD0033437B53E38850265D0803686D00EA
:10080000F65AF6182378DF0001239B02FB18F552F5
:10081000238950265D0803686D00F65AF618237880
:10082000DF005311FB18F55263780768002B23781B
:1008300075D09D007B5B5E0403D5654E0B40334352
:100840007B53237807689D007B5B5E0604D55E4E74
:100850000B40403633437B53237805689E00AB5BE7
:100860000B405B490B43AB53564E21783036334037
:100870000568890013436B522178554C0068890044
:10088000F13C234013434352002061460872F0BDFF
:100890006378002BA3881FD05D0803685026F65AA2
:1008A0006D00F6182378DF0001239B02FB18F55238
:1008B000237807689D007B5B5E0604D50B404249A8
:1008C00040310B437B53016820783E4C8300C85A6B
:1008D00030342040202440E05D0803685026F65A5A
:1008E0006D00F6182378DF003A4BFB18F5520368C9
:1008F0005025ED5A374EEB182578B61CED00AD1992
:100900005E19E3683E2B0BD9DD022D0CDB0601D10D
:100910006D1EADB2AB020125ED032B4307E020E0D5
:10092000DD032D0CDB0701D06D1CADB2AB023380B3
:10093000237807689D007B5B5E0403D50B40244948
:100940000B437B5301682078214C8300C85AF13C4B
:100950002040012424036040640060401043C852DA
:1009600092E79D007B5B5E0403D5194E0B40334339
:100970007B53237807689D007B5B5E0604D5124E8F
:100980000B40403633437B53237805689E00AB5BB6
:100990000B400D4940310B43AB530D4E2178F13ED6
:1009A00033400126360373407600734005688900A2
:1009B00013436B522178034C89000068303460E7A0
:1009C0008F8900008F8F00008080000080810000F0
:1009D00080C0000004040000F0B54D066D0E1C241C
:1009E0006C432418FF340934636122610022A26140
:1009F00062702570E5681E46AB4201D92B46F21A9B
:100A00006261A67A49060122890DD203002E2F4D7C
:100A100006680CD05027BF5BBE192F1FC919761866
:100A20003E2B15D9D902090CDF060CD00DE050275A
:100A3000BF5B4919BE19751820E08902114300E017
:100A40008902298032E0491E89B28902114306E0F9
:100A5000D903090CDF0701D0491C89B28902318012
:100A60006178002902D0012918D01FE001685026C2
:100A7000765A71182678F60075194D193E2B06D94D
:100A8000D902090CDB06D8D1491E89B2D5E7D903B2
:100A9000090CDA07D4D0491C89B2D1E70168502289
:100AA000525A51182278D20052198B52016820787C
:100AB000074B8200885A184001231B0358405B00F3
:100AC0005840044B184388520020F0BD0604000033
:100AD0008FBF000080800000F0B50246FF32E13297
:100AE000137A012B0BD001244F06CB097F0E147211
:100AF000002B06D01C237B431B18283306E0022062
:100B0000F0BD1C234B431B18FF3309339C701F702F
:100B1000CE095E70012424031025114B002F0BD049
:100B20004906C90D002E10D004680E4E605A3040A0
:100B300068401843605210E001680B4E088830404E
:100B4000604068401843088007E00568064E685A10
:100B5000303E304060401843685200201072F0BDB3
:100B600080800000BF8F0000BFBF0000F0B50646C8
:100B70001D464806400E1C2343439C19E563A263AF
:100B8000002222640123283463702070E0682B4621
:100B9000854203D90546181A606100E06261A07AB7
:100BA0002A4F002810D0227830689200825C4906D3
:100BB0005206890D002A16DA5022125A10183A1DD0
:100BC00089184552228914E0ABB2A28821693068A5
:100BD00001F0CDF930685021095A08182178C90070
:100BE000C919455220E05022125A1018C91945520D
:100BF000E288ABB22169306801F0B9F96178144834
:100C0000002902D0012907D00EE0217832688B003C
:100C1000D15A01400F4805E0217832688B00D15A43
:100C200001400D480143D152207831688200084BC1
:100C3000885A303318401023584020235840054B21
:100C4000403B184388520020F0BD00000204000021
:100C50008F8F0000C080000080C0000070B5044687
:100C6000006840308088C00B02D0204600F0CEFFE4
:100C700020684030818849050AD58188334A11406F
:100C80008180204600F0DAF80021204600F000F9CB
:100C9000206840308188490403D581882C4A11405E
:100CA0008180206840308188890403D58188294A61
:100CB000114081802068403081880425C9040029C2
:100CC00010DA0188A9430180BD202168000240316B
:100CD0000880204600F0BEF82068403081881E4A17
:100CE00011408180206840308188090517D58188AE
:100CF0001A4A11408180206840300188082211433F
:100D000001802068403001882943018020684030FC
:100D10008088C043C00402D5204600F0E3F8206874
:100D200040308188890506D581880D4A114081802F
:100D3000204600F0A5F8206840308188C90503D519
:100D40008188084A1140818070BD0000FFFB0000CF
:100D5000FFBF0000FFDF0000FFEF0000FFF7000013
:100D6000FFFD0000FFFE0000F8B500270446002844
:100D700007D02646FF36E136707A0025002802D0DB
:100D800005E00120F8BD3572204600F03BF8032055
:100D9000707201210BE01C207843021910462030AC
:100DA00041720772C572556395637F1CD563606895
:100DB000B842F0D800200BE01C2242431219FF3247
:100DC000013255721072D57255619561401CD56122
:100DD00062688242F0D8206840300180206840304C
:100DE0000580206840308580206840300582BF2023
:100DF0002268000240321080203425717172002078
:100E0000F8BD000008B500680A49884210D10A48B8
:100E1000C2690121C9050A43C261C06900220840B4
:100E2000009011461F20FFF73BFB1F20FFF72EFB12
:100E300008BD0000005C00400010024010B5C41D59
:100E4000FF34FA340121E06901F001FFE06901F0AB
:100E5000C6FE10BD10B504468069002806D00748BC
:100E6000016906229143016101F09CF8FF34FF34CF
:100E70000234E06901F0D6FE10BD000000ED00E094
:100E8000FF3010B5FF300230C06901F0D1FE10BD57
:100E90000246FF32E132137A012B08D0012313728C
:100EA000002906D020300171002010727047022006
:100EB00070470068802140308181F5E710B58721B7
:100EC00089000A580146FF31ED31104601F0D5FE88
:100ED00010BD00684030018B0122D2031143018311
:100EE0000020704710B50446FF30FF300230C06963
:100EF00001F018FFA069002804D003480169062208
:100F00001143016110BD000000ED00E0F8B504469A
:100F10000068434DC00352D5E8690026C00007D4DD
:100F2000E96928040143E961E9690140012600916A
:100F30003C480168C90510D401688215114301605D
:100F4000FFF758FA074604E0FFF754FAC01B64287D
:100F500024D834480068C005F6D5286A03273F0224
:100F6000384020D06168394081421CD0286A2A6A02
:100F7000B843012109040A432A622A6A8A432A6281
:100F80002862C0070FD0FFF735FA009008E0FFF79E
:100F900031FA0099411A2448814201D90320F8BD51
:100FA000286A8007F3D5286A6168B8430843286235
:100FB000002E04D0E869012109078843E861207800
:100FC000C00705D0286BA16880088000084328630B
:100FD0002078800706D5286B032109048843E1683F
:100FE000084328632078800605D5286B10218843A4
:100FF0002169084328632068800305D5286B802178
:101000008843A169084328632088400505D5286BDB
:10101000402188436169084328630020F8BD00002F
:10102000001002400070004088130000F8B505462B
:101030004E480E460068C007C00FB0420AD24B4867
:10104000016849084900314301600068C007C00FCA
:10105000B04270D12878464C800705D56068F021F1
:101060008843A968084360602878C00753D068683F
:10107000012817D0022818D0032819D02168890721
:10108000002958DA61688908890001436160FFF727
:10109000B1F969680746012913D002291DD0032937
:1010A00027D034E021688903EAE721688901E7E76E
:1010B000616BC903E4E7FFF79DF9C11B2D4881422D
:1010C00023D860680007800F0128F4D123E0FFF7E0
:1010D00091F9C11B2748814217D860680007800F2B
:1010E0000228F4D117E0FFF785F9C11B214881429E
:1010F0000BD860680007800F0328F4D10BE0FFF7DE
:1011000079F9C11B1B48814201D90320F8BD6068F1
:101110000007800FF3D115480168C907C90FB14214
:101120000BD9016849084900314301600068C007D4
:10113000C00FB04201D00120F8BD2878400706D585
:101140006068072109028843E9680843606000F08D
:101150002DF86168084A0906090F515CC840074923
:1011600008600020FFF764F90020F8BD002002406D
:1011700000100240881300000C310008EC00002031
:101180000148006870470000EC0000200448054951
:1011900000684968044A4905490F515CC8407047D6
:1011A000EC000020001002401C31000830B516A3EE
:1011B0000FCB89B06C460FC417A30FCB0FC41A49CD
:1011C0004A680C20144604401848042C05D0184BDB
:1011D000082C04D00C2C00D1184609B030BD940264
:1011E000240F6D462C5DC96A04AD0907090FD203AF
:1011F000695C920F022A02D0032A00D11846FEF73A
:1012000077FF6043E9E700000203040506070809C9
:101210000A0B0C0D0E0F101001020304050607083F
:10122000090A0B0C0D0E0F100010024000127A007C
:10123000006CDC02FEB504460078F04EF04DC007AD
:1012400048D068680007800F01281FD06868000731
:10125000800F022804D16868C003800F022815D0CF
:101260006168012919D001208004002901D00529D5
:1012700017D02968B14329602968814329606068D3
:1012800000281BD0FFF7B6F8074613E02868800354
:1012900020D56068002876D01CE02868304328609C
:1012A000EDE7296801432960F7E7FFF7A3F8C01BC2
:1012B000642869D828688003F7D50BE0FFF79AF80F
:1012C000074604E0FFF796F8C01B6428F1D82868A9
:1012D0008003F7D4207880073ED568680007800F28
:1012E00014D068680007800F022804D16868C00322
:1012F000800F01280AD0E068002828681DD001214D
:1013000008432860FFF776F807460BE02868800757
:101310000BD5E068012836D107E0FFF76BF8C01B5A
:101320000228C6D828688007F7D52868F82188439E
:101330002169C900084328600EE040084000286089
:10134000FFF758F8074604E0FFF754F8C01B0228DF
:10135000AFD828688007F7D42078000724D5E06943
:101360000028686A11D0012108436862FFF742F83B
:10137000074604E0FFF73EF8C01B022899D8686AC8
:101380008007F7D510E036E1D1E040084000686200
:10139000FFF730F8074604E0FFF72CF8C01B0228DF
:1013A00087D8686A8007F7D4207804274007002888
:1013B00061DA00200190E869C00008D4E969B80644
:1013C0000143E961E96901400120009101908D48E4
:1013D0000168C90511D40168821511430160FFF746
:1013E00009F8009005E0FFF705F80099401A642815
:1013F00097D884480068C005F5D5A06801280AD0B0
:10140000002801D0052811D0286A40084000286231
:10141000286AB84302E0286A012108432862A068CC
:10142000002812D0FEF7E6FF00900AE0286A384351
:101430002862F0E7FEF7DEFF0099411A7248814208
:1014400075D8286A8007F5D50DE0FEF7D3FF009028
:1014500006E0FEF7CFFF0099411A6B48814266D83B
:10146000286A8007F5D40198002804D0E969012092
:1014700000078143E9612078C00635D560690128FD
:101480000CD0401D686B24D038436863686B4008FB
:1014900040006863FEF7AEFF074622E0686B384302
:1014A0006863686B012108436863FEF7A3FF074682
:1014B00004E0FEF79FFFC01B022838D8686B800746
:1014C000F7D5686BF8218843A169C90008436863B0
:1014D0000AE0B8436863F4E7FEF78CFFC01B0228FC
:1014E00025D8686B8007F7D42078800637D56868E0
:1014F0000007800F032813D068680007800F0228B8
:1015000004D16868C003800F032809D0206A00282E
:10151000686B16D030436863FEF76CFF06460CE03C
:10152000686BC0031BD5206A012864D117E05BE01B
:10153000FEF760FF801B022856D8686BC003F7D502
:101540000DE0B0436863FEF755FF064604E0FEF782
:1015500051FF801B022847D8686BC003F7D4606A2C
:10156000002846D069680907890F022943D001265F
:1015700036060228286805D0B0432860FEF73AFFF7
:10158000044633E0B0432860FEF734FF074604E02A
:10159000FEF730FFC01B022826D828688001F7D448
:1015A000E86A216B000900010843E862A16AE06A69
:1015B000084369687B22D203914308436860286826
:1015C00030432860FEF716FF044604E0FEF712FFE2
:1015D000001B022808D828688001F7D509E0FEF72B
:1015E00009FF001B022801D90320FEBD28688001E5
:1015F000F5D40020FEBD0120FEBD0000000001006A
:1016000000100240007000408813000004220449CA
:101610000428086902D09043086170471043FBE733
:1016200000E000E070470000094910B5401E884204
:1016300001D9012010BD074C60610321081F00F093
:10164000C3FA0020A06107202061002010BD000027
:10165000FFFFFF0000E000E010B5FFF7E3FF10BD63
:101660007047704770B502462032137F012B1BD0A4
:101670000123137702245477046865687026B54304
:101680006560046865680E68354365600468A56830
:101690008026B543A5600068846849680C4384606F
:1016A00053770020107770BD022070BD70B5040024
:1016B00005D025462035687F002802D006E00120AD
:1016C00070BD00202877204600F00AF802206877D5
:1016D000211D206800F0D6FC01206877002070BD35
:1016E00008B500680121890788420FD10848C169FF
:1016F00001221143C161C0691040002200901146CF
:101700000F20FEF7CDFE0F20FEF7C0FE08BD000043
:10171000001002400268D36801210B43D3600068C7
:1017200002680A43026000207047F8B50546044687
:101730002035287F012817D001272F7702206877CE
:10174000226890687726FF23B0431B02984390607D
:101750000868502837D00EDC202857D006DC002837
:101760004ED0102840D14EE00220F8BD302850D095
:10177000402839D13CE060282DD0702817D00122B4
:101780001203801A0ED090422ED1CB684A68896825
:10179000206800F0C1FC2068816801229203114397
:1017A000816021E020688168C908C900F8E7CB683A
:1017B0004A688968206800F0AFFC21688868B043F7
:1017C0003043886010E0CA684968206800F0B7FCC0
:1017D0005021206806E0CA684968206800F0C0FC13
:1017E0006021206800F0A3FC6F7700202877F8BD07
:1017F000CA684968206800F0A2FC40212068F1E72F
:1018000000212068EEE710212068EBE72021206806
:10181000E8E730212068E5E7704770B504460068C6
:1018200001690025C9438907002915DBC168C9433F
:10183000890711D4E91E01610120207720688069A1
:101840008007204602D0FFF7E7FF04E000F096F89B
:10185000204600F094F8257720680169C9434907BC
:1018600017D4C168C943490713D40421C94301618E
:1018700002202077206880698005800F204602D0F2
:10188000FFF7CAFF04E000F079F8204600F077F88F
:10189000257720680169C943090716D4C168C9437F
:1018A000090712D40821C943016104202077206868
:1018B000C0698007204602D0FFF7AEFF04E000F0C9
:1018C0005DF8204600F05BF8257720680169C94380
:1018D000C90617D4C168C943C90613D41021C94326
:1018E0000161082020772068C0698005800F2046AC
:1018F00002D0FFF791FF04E000F040F8204600F02E
:101900003EF8257720680169C943C90708D1C16835
:10191000C943C90704D1891E0161204600F030F88F
:1019200020680169C943090609D4C168C943090689
:1019300005D48021C94301612046FFF791FE20684C
:101940000169C943490609D4C168C943490605D498
:101950004021C9430161204600F013F82068016965
:10196000C943890609D4C168C943890605D4202121
:10197000C94301612046FFF774FE70BD7047704790
:101980007047704770B5040005D025466035687A09
:10199000002802D006E0012070BD002028722046F9
:1019A00000F026F824206872206801684908490080
:1019B0000160204600F086FC0128EDD0606A002816
:1019C00002D0204600F0DFFB206841680922D202E5
:1019D00091434160206881682A2291438160206898
:1019E0000168012211430160204600F031FC70BD06
:1019F00030B5054600681A4987B088422ED119488B
:101A0000C269012149040A43C261C06908400590C6
:101A10000C200090022001900121032003900291EC
:101A2000049109206946C006FEF732FC0F4C0E48AF
:101A3000206000211020A160606021616161A161CE
:101A40008020E161E0602046FEF7E8FB002803D03B
:101A50009D2107A001F002FB2C66656207B030BD36
:101A600000440040001002404400024018040020DE
:101A70002E2E2F5372632F73746D33326630787845
:101A80005F68616C5F6D73702E630000FEE700009D
:101A900030B5164887B04269012189050A43426181
:101AA00042690A400592426949110A43426142690A
:101AB0000A400592426989000A43426140690F2445
:101AC00008400B4DA4010590002221462846FEF750
:101AD0008BFC002101200291039101900094694642
:101AE0002846FEF7D5FB07B030BD000000100240CD
:101AF0000008004810B50121134886B0890701602D
:101B00000024124984604160FF210461F431846142
:101B1000C160FFF7CBFD002800D0FEE701200003E5
:101B2000009069460848FFF700FE002800D0FEE755
:101B3000202004A911C104480839FFF793FD0028AB
:101B400000D0FEE706B010BD680300207FBB000098
:101B500010B50E480C4901604B214902416000213B
:101B60008160C160016181610C22C16142610162D9
:101B700040224262920302644164FFF703FF00289F
:101B800000D0FEE710BD000000440040A803002084
:101B900010B500220749084800F0C9FE0749064869
:101BA00001F0EFF80649044800F0E6FC024801F0B5
:101BB00039F910BD000000205C0400206C000020FA
:101BC00058000020704700008307FF22DB0E9A4078
:101BD0008907090E994000280BDA0007000F083822
:101BE000830808489B001818C36993430B43C361DB
:101BF0007047830804489B001B18186890430843EB
:101C00001860704700ED00E000E400E0F0B585B03A
:101C100004460020694688802646203678E19A8965
:101C200017073F0F26D0B9000291425A9A8099882F
:101C300009047DD5BE490A400299425238461C210A
:101C400048430519FF350935A87A0028206870D067
:101C500029788A00825A52046CD55022125ACB003D
:101C6000B44912185918515A8905890D00917DD02F
:101C7000EA88BDE09A89D20627D40188AE4A254673
:101C80001140018020685021095A28350818297808
:101C9000CA00A8495118405A8005800D2064A16BE4
:101CA0000818A06300212046FEF71BFC30790028AD
:101CB000B4D068690028B1D1307980210843216807
:101CC000403188810020307122E12546FF350288AD
:101CD00009359A809B881B0519D5098A0918287827
:101CE000C2009448001D1018085A294683059B0D10
:101CF000AB61AA88E431206800F024F920688C4A9E
:101D00000188114001802046FFF7D8F800E16946BC
:101D100089880904D8D58649864F0A400280206800
:101D20005021095A3F1D09182878C000C01902E047
:101D300085E03DE04FE0085A83059B0DAB6108D07C
:101D4000AA882969206800F0FDF8A9692869401867
:101D5000286100212046FEF7D0FB20680146403074
:101D6000008A4018C119E8683E2800E044E00AD91A
:101D7000C202120CC00601D1521E92B29002012280
:101D8000D203104306E0C203120CC00701D0521C5C
:101D900092B2900208802168684A088810400122A7
:101DA0001203504052005040654A10430880AFE093
:101DB0005021095A0A182978CB005E49091D591883
:101DC000515A8905890D009121D0AA882969009B63
:101DD00000F0B8F81BE05022CB00125A55491218F7
:101DE000091D5918515A8905890D009104D02A8975
:101DF0002969009B00F0A6F8297820688A004E4BDC
:101E0000815A803319404E4B403319438152A9699E
:101E100000980818A861296900980A182A616B6956
:101E2000002B03D0E9680098814204D92978204624
:101E3000FEF763FB03E029782046FEF7CDFD6846F8
:101E40008088000664D51C204743206802993A4ADE
:101E5000415A3D191140029A28358152A87A00282A
:101E6000206811D029788A00825C52061ED5502243
:101E7000125AC90012182F480818105A83059B0DD2
:101E8000AB6124D0EA881EE05021095A091828784D
:101E9000C20028481018085A83059B0DAB6121D059
:101EA000AA882969206800F062F81BE05022125AC3
:101EB000C90012181F48001D0818105A83059B0DF1
:101EC000AB6104D02A892969206800F050F828788D
:101ED00022688000184B115A80331940174BF13398
:101EE0001943115220685021095A09182878C20054
:101EF00010481018085A8005800DA86129690A1831
:101F00002A616B692978002B20460DD0FEF72EFE42
:101F10002068014640318A886B469A81120400D5B8
:101F20007DE6002005B0F0BDFEF7DBFAF0E700002B
:101F30008F0F0000020400000F8F00008FBF000011
:101F400080800000101810B5012292025C088018F1
:101F5000002C07D002880A70120A4A70801C891C63
:101F6000641EF7D1DA0701D00078087010BD101890
:101F700001225B1C920210B55B088018002B08D070
:101F80004A780C78120222430280801C891C5B1E56
:101F9000F6D110BD7047704710B5FEF731FAFFF764
:101FA0005BFB10BD10B598B02020009001200024EC
:101FB000089009946846FFF73DF9002800D0FEE735
:101FC000072014900320159016940121179414A84B
:101FD000FFF72CF8002800D0FEE70E480D90109473
:101FE00013940DA8FEF792FF002800D0FEE7FFF73C
:101FF000C7F87D21C900FEF77BF8FFF715FB042029
:10200000FFF704FB00221146501EFEF749FA18B0F4
:1020100010BD0000020002001248016801221143B5
:1020200001604168104A1140416001680F4A114047
:1020300001600168012292049143016041683F22DE
:10204000120491434160C16A09090901C162016B2F
:10205000074A11400163416B49084900416300216F
:1020600081607047001002400CB8FF08FFFFF6FEC9
:102070002CFEFCFF10B50248FFF7CFFB10BD00009F
:1020800068030020F0B502681D4B0124A4071D4D14
:10209000984203D0A04201D0A84203D17026B24397
:1020A0004E683243184E194F98420DD0A0420BD0C3
:1020B000A84209D0164CA04206D0B04204D0B84283
:1020C00002D0144CA04204D103242402A243CC68C1
:1020D00022438024A2434C69224302608A68C26280
:1020E0000A688262984206D0B04204D0B84202D058
:1020F000084A904201D10969016301214161F0BDA3
:10210000002C014000040040004001400044014018
:10211000002000400048014030B58468FF252D02B2
:102120001B021343AC430B432343836030BD8268DF
:1021300070239A430A4307210A438260704730B5EF
:10214000036A046A6408640004628469F025AC438D
:10215000120122430A24A3430B438261036230BD70
:1021600030B5036A1024A34303628469036A0F2510
:102170002D031203AC432243A024A34309011943B6
:102180008261016230BD10B5818CC90707D001683A
:102190004A6801235B049A43836A1A434A60818C2C
:1021A000890707D501684A6801231B049A43C36A5B
:1021B0001A434A60818C490707D501684A680123A0
:1021C0009B049A43036B1A434A60818C090707D525
:1021D00001684A680123DB039A43436B1A434A6050
:1021E000818CC90607D50268916801231B039943B6
:1021F000836B19439160818C890607D501688A68D1
:1022000001235B039A43C36B1A438A60818C49069E
:1022100012D503685A6801210905046C8A432243D8
:102220005A60026C8A4207D10268516803235B0539
:102230009943436C19435160818C090607D50168A5
:102240004A680123DB04806C9A4302434A6010BD54
:10225000F8B500260446C666FEF7CCF805461649D2
:102260002068884202D0154988421DD10068144F69
:10227000000709D501212B46002249052046009779
:1022800000F0CEF800280DD12068006840070BD57B
:1022900001212B46002289052046009700F0C0F856
:1022A000002801D00320F8BD202060346072A072A5
:1022B00026720020F8BD00000038014000440040B4
:1022C000FFFFFF01F8B504462369A268E5691A43D8
:1022D000636910202B43002125681A432B680E46A2
:1022E000474F3B4013432B6023685A6803252D0357
:1022F000AA43E5682A435A60236AA26925681A43FB
:10230000AB680B273F02BB431343AB603D4F2568CF
:102310003D4B0203BD420AD11B6B9B079B0F20D094
:10232000012B14D0022B14D0032B1BD10DE0374FFF
:10233000BD4210D11B6B03273F043B4011D09B1AB9
:1023400005D09B1A05D093420CD102200AE004204C
:1023500008E0082006E02E4B9D4202D02D4B9D4206
:1023600000D100200123E769DB039F4222D100282E
:102370000CD002280DD0042813D0082817D001262D
:102380000A0912010807400F10432EE0FEF7FEFE77
:1023900009E06168204A48088018FDF7A9FE81B26B
:1023A000EEE7FEF703FF616840004A08F4E7616862
:1023B0004808F1E7002808D0022809D004280CD0EA
:1023C000082815D001263046F8BDFEF7DFFE06E0EE
:1023D0006168124A480880180DE0FEF7E7FE616860
:1023E0004A088018FDF784FE80B22168C860EAE7D9
:1023F00061684808C018FDF77BFE80B2E860E2E73C
:10240000F369FFEF00380140001002400044004033
:1024100000480040004C00400024F40000127A0004
:10242000FFB581B017460E4604460A9D1DE0681CA4
:102430001BD0002D05D0FDF7DDFF0499401AA842FE
:1024400013D920680168FF22A132914301602068FE
:102450008168490849008160202060346072A07260
:1024600000202072032005B0F0BD2068C16930460D
:10247000884304D00020B842D9D00020F3E70120DF
:10248000F9E7FF30FF3002308069002140300174ED
:102490000846704770B5C51DFF35FA35AC69EA6965
:1024A0000646D26861782078904740232246012171
:1024B000304600F081FB002070BD10B5044681213C
:1024C00000F061FA0121204600F05DFAFF34FF348C
:1024D0000234A069002807D0E06980688047A069BD
:1024E00000F0AEFD0020A061002010BDFF3010B54F
:1024F000FF3002308469E16C012907D1C06922787C
:10250000C3686178104698470020E064002010BD41
:102510002921018000487047A80000200A2101807D
:1025200000487047E000002070B5044600264023B4
:102530000322812100F02AFB4023032201212046AF
:1025400000F024FB542000F07DFDE11DFF31FA3145
:10255000886100280ED00546002240300274C86908
:102560004068804740232A460121204600F024FB92
:10257000304670BD0126FBE702460220002904D048
:10258000FF32FF3202320020D161704710B513468E
:10259000FF244322FD34D200245C1258032C09D1BD
:1025A0004032147C002C05D1012414740A46812188
:1025B00000F0C0FB002010BDF8B5C41DFF34FA3494
:1025C000002225460E78A469602713463E4026D097
:1025D000202E49D14A78921E130000F040FD0A11C6
:1025E000091C1C1C1C1C150D061C887820643BE073
:1025F0000122214640312EE04888000A606433E021
:1026000001222146443126E00122E2648A792146F2
:1026100000F050F828E000F043F80220F8BD4E78B2
:10262000062E04D00A2E19D00B2E1DD11AE04C888C
:10263000240A222C02D0212C07D00BE0CA88222A9F
:1026400000D92222E9690B6804E0CA88074B092AED
:1026500000D90922194600F049F805E00122214677
:102660004831F8E78878A0640020F8BDD400002045
:1026700010B585229200125852689047002010BD74
:10268000134610B50A46002100F096FA002010BD4E
:10269000134610B50A46002100F04CFB002010BD87
:1026A00010B50446802100F017FB0021204600F001
:1026B00013FB10BD10B5FF230324F5331C50C31DBD
:1026C000F9339A60DA6013460A46002100F074FA82
:1026D000002010BD10B5FF210522F5310A5000235E
:1026E0001A46194600F068FA002010BD10B5FF2305
:1026F0000224F5331C5082611346C2610A46002150
:1027000000F018FB002010BD10B5FF210422F531A8
:102710000A5000231A46194600F00CFB002010BD99
:1027200010B50A46024903A000F0DFF8004810BDCA
:1027300080060020437573746F6D20484944204320
:102740006F6E6669670000001220088000487047BD
:102750002000002010B50A46024903A000F0C5F889
:10276000004810BD80060020437573746F6D2048CB
:10277000494420496E74657266616365000000001B
:1027800004200880004870471C00002010B50A464D
:10279000024903A000F0A9F8004810BD80060020FF
:1027A00053544D6963726F656C656374726F6E69C3
:1027B0006373000010B50A46024903A000F095F8C3
:1027C000004810BD80060020446973636F7665720F
:1027D000794B45590000000010B50A46024903A094
:1027E00000F083F8004810BD800600203030303003
:1027F000303030303030314100000000F8B50D4647
:1028000004464988FF300A0AFF300230130000F006
:1028100026FC08500509165050454D500069237C90
:10282000026817E0217C02264069002905D0C16AB0
:10283000684688470146467047E0816AF8E7CAB2B1
:10284000130000F00CFC06040B0F161A1E2400697E
:10285000237C426869461846904716E00069227C4E
:10286000836802E00069227CC36869461046984785
:102870000BE00069227C0369F7E70069227C436969
:10288000F3E70069227C8369EFE701461DE04069B8
:10289000C9B2836B6A4620469847F6E7217C002937
:1028A00007D14069416B68468847EEE7217C0029E3
:1028B00004D029462046FFF7F3FEF8BD4069016BBE
:1028C000684688470722014642706846008800280B
:1028D000F3D0EA88002AF0D0824200D90246684646
:1028E00002802046FFF702FFF8BD70B500230028E4
:1028F0001CD00446002502E06D1CEDB2641C267855
:10290000002EF9D16C00A41C1480CC5403225B1C53
:10291000CA5400245B1C06E0CA545B1CDAB28C5417
:10292000521CD3B2401C0278002AF5D170BD10B5FC
:10293000002813D0C31DFF33FA335C69002C01D08B
:1029400000245C61002900D01961FF210123FD31C1
:102950000B54027000F0C0F8002010BD022010BD22
:1029600010B5FF30FF3002300024006AFDF788FE0A
:10297000002806D0012801D0022801D0022400E05E
:102980000124204610BD10B5FF30FF300230002476
:10299000006AFDF7C1FD002806D0012801D00228F9
:1029A00001D0022400E00124204610BDFEB50446FB
:1029B000FF30E51DE130FF35FA351346019000295F
:1029C00008D068694269002A49D00198007F03282D
:1029D00043D044E02646FF3681362046716F1430DE
:1029E000022934D1C26881680092914207D9891ABC
:1029F00081608AB219462046FFF74AFE13E040681C
:102A000011460746FDF774FB002913D10098874251
:102A100010D3B06F87420DD2002211462046FFF737
:102A200037FE0020B06700231A461946204600F002
:102A3000C3F80CE06869C168002905D00198007FDF
:102A4000032801D1204688472046FFF743FE287817
:102A5000012804D10020287001E020469047002082
:102A6000FEBD70B50546FF35E1352B4620331646D1
:102A70000446002907D058698269002A29D0287F96
:102A8000032824D025E0FF21F531E01D0959FD3050
:102A900003291ED18268C1688A420BD9511A81600C
:102AA000C068814200D301468AB231462046FFF712
:102AB000E7FD0EE058690169002904D0287F03284A
:102AC00001D1204688472046FFF71EFE01E0204640
:102AD0009047002070BD000010B51B49C41DC8619F
:102AE000FF341A49FA341A48216208600222082089
:102AF0008A6048600020C8608861C8610A61086215
:102B00000846FEF731F9002804D0FF21253111A035
:102B100000F0A4FA002218231146206AFDF7C4FC35
:102B2000582300228021206AFDF7BEFC9823002252
:102B30008121206AFDF7B8FCD82300220121206AF8
:102B4000FDF7B2FC002010BD480300204801002022
:102B5000005C00402E2E2F5372632F757362645FEA
:102B6000636F6E662E630000FF30CA09FF304906AE
:102B70000230490E1C23006A59430818002A01D06C
:102B8000203001E0FF300130807A704770B5FF30AF
:102B90001D46FF30023013460024006A2A46FDF726
:102BA000C9FD002806D0012801D0022801D0022446
:102BB00000E00124204670BD10B5FF30FF30023028
:102BC0000024006AFDF708FF002806D0012801D084
:102BD000022801D0022400E00124204610BD70B577
:102BE0000022044640231146FFF7D0FF4025FF2076
:102BF000113005512B46002280212046FFF7C6FFE9
:102C0000FF200121FD3025620155E01DFF30FA3023
:102C10008169002904D040692179426820469047A3
:102C2000002070BDFF30E130417F01770020704708
:102C300010B5FF21FD31095C032906D185218900EA
:102C40000958C969002900D08847002010BD0174C7
:102C50000020704710B5FF30FF3002300024006ABA
:102C6000FEF716F9002806D0012801D0022801D06D
:102C7000022400E00124204610BD70B50446412026
:102C8000C0002018054600F068F82146FF31813168
:102C90000122084680304A67C2898A67007AC106E5
:102CA000C90E0AD001290DD0022910D0C109C901CD
:102CB000204600F011F8002070BD2946204600F0A3
:102CC000B6F8F8E72946204600F09DF9F3E72946D3
:102CD000204600F023F9EEE710B5FF30FF30023058
:102CE0000024006AFDF7F8FE002806D0012801D074
:102CF000022801D0022400E00124204610BD10B5B6
:102D0000FF30FF3002300024006AFEF7E2F80028AE
:102D100006D0012801D0022801D0022400E00124BD
:102D2000204610BDFF30E130017F4177042101775B
:102D30000020704710B5FF30FF3002300024006AD9
:102D4000FDF714FF002806D0012801D0022801D089
:102D5000022400E00124204610BD0A7802704A785F
:102D60004270CB788A781B02D21842804B790A795C
:102D70001B02D21882808A79C97909025118C18050
:102D8000704702460020002904D0FF32FF32023291
:102D9000516170470220704710B585229200125889
:102DA0000224002A04D012689047002800D1002491
:102DB000204610BD70B50E468978194D044629701D
:102DC000012904D931462046FFF76AFC70BD204630
:102DD000FF30E130027F022A15D0032AF2D1002908
:102DE00017D0606888420AD0C1B22046FFF740FC85
:102DF000297861602046FFF7CFFF0228E2D0204605
:102E0000FFF782FC70BD0029F9D0032261600277D0
:102E1000F0E70222027720466160FFF729FCEEE727
:102E2000EA00002010B5FFF76AFF002010BDF8B5DA
:102E300000220092C61DFF364C781746FA363246FD
:102E40000125203A230000F00AF90A3C564150417E
:102E50000906412B2841FFF7D1FC5DE00446888834
:102E6000002818D1C888002815D18878174646064A
:102E7000107F760E03280ED0BE7731462046FFF72E
:102E8000E9FE2046FFF740FC002E02D002203877F2
:102E900042E03D7740E0204618E0FFF78BFF3BE043
:102EA000CB88012B12D1127F022A02D0032A0DD126
:102EB00004E0012201460831876013E00122011D70
:102EC00010E0127F022A04D0032A02D0FFF7E8FBA9
:102ED00022E0C5607168002901D00321C16001466C
:102EE00002220C31FFF702FC16E004464888012854
:102EF00012D1756009E00446107F022801D0032832
:102F0000C9D14888012807D1776070698268204656
:102F100090472046FFF7F8FB0098F8BDF8B5044647
:102F20000D462878E61D4006FF3600270979800FF8
:102F3000FA36012809D06A7830462038002A38D07D
:102F4000012A1ED0032A3DD106E070692946826815
:102F5000204690470020F8BD007F022817D00328A4
:102F60002CD16888002806D1002904D0802902D0FD
:102F70002046FFF7B1FE70692946826820469047D7
:102F800013E0007F022802D0032817D104E00029B3
:102F900018D080291AD115E06888002812D1480677
:102FA00003D02046FFF7DCFCE5E72046FFF7ACFB4B
:102FB00008E0007F022807D003280BD029462046CE
:102FC000FFF76EFB3846F8BD4806FBD02046FFF7FA
:102FD00083FEF7E7C80904D04806400D05191435EB
:102FE00004E04806400D0519FF3505352046FFF77A
:102FF000BBFD002800D0012028600222294620467F
:10300000FFF774FBDEE770B50446FF30E130007F68
:103010000D4603280FD1287901280CD8852080007F
:103020000059826820469047E888002806D120464B
:10303000FFF76AFB02E02046FFF732FB002070BD7D
:103040007047000000487047F000002010B50248AB
:10305000FDF704FE10BD000048010020FEE730B47B
:103060007446641E2578641CAB4200D21D46635D25
:103070005B00E31830BC184702E008C8121F08C103
:10308000002AFAD170477047002001E001C1121FE9
:10309000002AFBD17047000092B0FDF7B9F9FEF7A6
:1030A00081FFFEF7F5FC1648416901242143416187
:1030B000406900222040119011460B20FDF7F0F9E5
:1030C0000B20FDF7E3F9FEF763FDFEF741FDFEF788
:1030D00011FD0C48FEF71EFB68460470022141708A
:1030E000032181700421C170052101716420FDF765
:1030F000C1F8412269460448FFF748FAF6E70000A4
:1031000000100240680300205C0400200000000062
:103110000000000001020304060708090000000087
:10312000010203044431000800000020F000000008
:103130007830000834320008F0000020900B0000C6
:103140008830000849270008812700088D270008DB
:10315000B5270008D92700082127000855270008AF
:10316000040309041201000200000040660677070C
:1031700000020102030100000600FF0901A1018510
:1031800001090175089540B1828501090191828587
:10319000020902750895408182C0000034000020B9
:1031A0004501000841010008490100080000000035
:1031B00029250008BB240008B925000800000000EC
:1031C000ED24000883240008952400080000000076
:1031D0000000000000000000112500081125000873
:1031E000112500081D250008000000000902290023
:1031F000010100C03209040000020300000009219F
:10320000110100012222000705810340002007056B
:1032100001034000200000000921110100012222C9
:10322000000000000A06000200000040010000004B
:0432300000127A000E
:04000005080000C12E
:00000001FF
